:020000040800F2
:10000000D81F0020D50000088118000849170008F3
:1000100000000000000000000000000000000000E0
:10002000000000000000000000000000851800082B
:100030000000000000000000831800088918000874
:10004000E700000800000000E7000008E7000008E3
:10005000E7000008E7000008E7000008E7000008E4
:1000600000000000E5010008F9010008E7000008B1
:10007000E7000008E7000008E700000800000000B3
:10008000E70000080000000000000000E700000892
:1000900000000000E7000008E7000008E700000893
:1000A000E7000008E7000008E7000008511F00080B
:1000B000611F0008000000000000000000000000B8
:1000C0000348854600F050F800480047092700081B
:1000D000D81F00200448804704480047FEE7FEE799
:1000E000FEE7FEE7FEE7FEE739190008C100000859
:1000F00030B50B46014600202022012409E00D46C0
:10010000D5409D4205D31D469540491B2546954047
:1001100040191546521E002DF1DC30BDD2B201E06F
:100120000270401C491EFBD270470022F6E710B552
:1001300013460A4604461946FFF7F0FF204610BD55
:1001400030B505462A460B4610781C78521C5B1CBD
:10015000002801D0A042F7D0002C03D0002802D004
:100160006D1CEFE7284630BD064C0125064E05E024
:10017000E36807CC2B430C3C98471034B442F7D3C8
:10018000FFF7A2FF182800083828000870B58C185F
:100190000578401C6B075B0F01D10378401C2A11C6
:1001A00006D10278401C03E006780E70401C491C02
:1001B0005B1EF9D12B0705D40023521E0DD40B7002
:1001C000491CFAE70378401CCB1A921C03E01D7807
:1001D0000D70491C5B1C521EF9D5A142D8D30020DA
:1001E00070BD000010B502F07FF8024800F036F94B
:1001F00010BD00009805002010B5034800F02EF94E
:10020000024800F02BF910BDF40500205006002034
:1002100010B50446007814210838FFF769FF216CF7
:10022000064A890889008918616404498031A164FB
:100230001C21084001218140E16410BD00080240FA
:100240000179074B8A00D2180265054A4432491EDB
:1002500042658A07920F0121914081657047000035
:10026000FC080240F0B5846CC56C6560046D002C20
:1002700002D0446D856D65600B4C6568066C1C276B
:100280003E400127B7403D43656004686360836872
:10029000102B036803D099600068C260F0BD9A60BB
:1002A0000068C160F0BD00000000024010B53222BD
:1002B0000549064801F010F9044800680168102259
:1002C0001143016010BD0000B40600200C050020A1
:1002D00070B50524240701220221204600F065FAAA
:1002E0007D20C00000F0AEF900220221204600F07F
:1002F0005CFA7D252D01284600F0A4F90122022197
:10030000204600F052FA284600F09CF9284600F0FA
:1003100099F9284600F096F9284600F093F970BD47
:1003200010B50D4C2068C169C943C90613D410210A
:100330000162204600F005FFA06F006840681922A6
:100340005201111A0548418001210170014608310E
:10035000204601F0C1F810BD0C050020AC060020BD
:1003600070470000F0B5002808D0014620314A79D6
:10037000022A05D00422C263002008710120F0BDCA
:10038000026813680E24A3431360426C1468FF23B1
:1003900001339C43146002681468640864001460AC
:1003A0000C4A5568066C1C24264001242746B74099
:1003B0003D435560826CC56C5560026D002A05D0C6
:1003C00015689D431560826D406D42604C71002040
:1003D0000871F0BD00000240F8B50146002420314C
:1003E00001220A714B79022B03D00421C16301243D
:1003F0002DE003681D680E26B5431D6003681D6867
:100400006D086D001D60436C1D68FF260136B54305
:100410001D60104B5D68066C1C273E401746B740B8
:100420003D435D60836CC56C5D60036D002B07D040
:100430001E68FF250135AE431E60436D856D5D600E
:100440004A7100220A71816B002900D0884720463A
:10045000F8BD000000000240C06B7047F0B42C49AA
:100460000C6802681368056C1C273D400426AE40EA
:10047000264211D05E070FD513689B0603D414687B
:1004800004239C4314604B68046C04223C40A2404B
:1004900013434B60016B1CE00227AF400646274028
:1004A0002036002F19D09F0717D513689B0605D457
:1004B00013680A24A3431360012272714B68046C11
:1004C0001C2214400222A24013434B6000213171D0
:1004D000C16A00291AD0F0BC08470827AF4027425C
:1004E00014D01B0712D513680E24A34313604B6866
:1004F000046C1C22144001221546A5402B434B607E
:10050000C263727100213171416BE2E7F0BC704748
:100510000000024070B504003DD024482568142135
:100520002818FFF7E5FD80002064022026462036CB
:10053000707128681E4908402860E168A0686269F7
:100540000843216911430843A1690843E16908434D
:10055000216A084321680A68104308602046FFF7B3
:1005600057FE0121A06889030025884200D16560FB
:10057000616C20790860A06CE16C41606068401E8D
:1005800003280AD82046FFF75BFE206D0560606DEA
:10059000A16D416004E0012070BD25656565A5651C
:1005A000E563012070713571002070BDF8FFFDBF5B
:1005B0000F80FFFFF8B5054604462035287900274F
:1005C0008C4601280AD0012028716879002601286C
:1005D00006D02E7102272E713846F8BD0220F8BDD4
:1005E00002206871E66320680168490849000160DB
:1005F00061462046FFF736FE206B00282068016820
:1006000001D00E2205E004229143016020680168B8
:100610000A2211430160606C0168CA03084902D5CF
:1006200002680A430260206D002802D002680A4373
:10063000026020680168012211430160CBE70000DD
:100640000001000070B5044600F0B6F80546601CD5
:1006500002D004484068241800F0AEF8401BA042C5
:10066000FAD370BD08000020F0B5002388E0012215
:100670009A409446144022007ED04C68022C01D04F
:10068000122C0CD1DC08A40027183C6A5D07ED0E83
:100690000F26AE40B4430E69AE4026433E62056865
:1006A0005E000324B4400F79A543BF07BF0FB740D6
:1006B0002F4307604D68012D05D0022D03D0112D69
:1006C00001D0122D0ED18568CF68A543B7402F43C6
:1006D000876047686546AF430D79ED06ED0F9D4095
:1006E0003D434560C568A5438C68B4402C43C46055
:1006F0004C68E40043D59D08244CAD002F193C6E96
:100700009D07EE0E0F25B540AC4305252D07A842E9
:1007100001D100250FE01E4DA84201D101250AE0BC
:100720001C4DA84201D1022505E01B4DA84201D174
:10073000032500E00525B5402543144C3D66134DC7
:1007400080352E684F689643FF0300D516432E6010
:100750006E684F689643BF0300D516436E602568E8
:100760004E689543F60200D51543256065684E68CE
:100770009543B60202D500E001E0154365605B1CBD
:100780000A681446DA4000D071E7F0BD0018024054
:100790000004005000080050000C005042690A425A
:1007A00001D08162704781617047002A01D0816168
:1007B0007047816270470000014880687047000000
:1007C00008000020024881684268891881607047EB
:1007D0000800002010B50848002401688215114364
:1007E0000160204600F00AF8002801D0012401E051
:1007F00000F028F8204610BD0020024070B50F4ED2
:10080000002471680546002915D07D20C000FFF73F
:100810006FFC01460A480068FFF76AFC00F008FC1C
:10082000002808D1042D06D200222946401E00F0DF
:100830002BF8356000E00124204670BD0800002040
:100840001400002008B50948016801221143016025
:1008500000681040009005484038C26B01040A430C
:10086000C263C06B0840009008BD00004010024009
:10087000002805DBC106C90E012088400149086037
:100880007047000000E100E010B501F091FB10BDE1
:10089000BFF34F8F04490348C860BFF34F8F00BFB9
:1008A000FDE700000400FA0500ED00E010B50F4C74
:1008B000216803225202914301432160C11FFF3985
:1008C000FA390ED10A480621006848430949FFF762
:1008D0000FFC401C02E0002805D0401E616949055C
:1008E000F9D4002010BD032010BD000000700040AE
:1008F0001400002040420F00F8B5044600680026AE
:100900004D4D800358D54C4800274038C06BC0007F
:1009100009D449484038C26B01040A43C263C06B22
:100920000840012700904548016882151143016085
:10093000FFF742FF009005E0FFF73EFF0099401AE5
:10094000022825D83D480068C005F5D5E86903218F
:10095000090208400FD0616981420CD0E869032187
:100960000902EA698843012109040A43EA61EA6944
:100970008A43EA61E861C0070FD0FFF71DFF0090CE
:1009800008E0FFF719FF0099411A2D48814201D96B
:10099000032609E0E8698007F3D5E8690321090225
:1009A000884361690843E861002F05D02248403838
:1009B000C26B01048A43C2632078C00705D068690E
:1009C000616880088000084368612078400606D589
:1009D0006869032109038843A16808436861208886
:1009E000400411D568692169800080080843686166
:1009F000012120698907884206D10F484038C16823
:100A0000012212041143C1602088000512D56869D3
:100A1000032189038843E168084368610121E06894
:100A20008903884206D104484038C1680122120473
:100A30001143C1603046F8BD4010024000700040D4
:100A400088130000F8B50F46060043D04D4D2868C6
:100A50004007400FB84213D22868C008C00038438E
:100A60002860FFF7A9FE044605E0FFF7A5FE011B7D
:100A70004548814261D828684007400FB842F4D108
:100A80003068424C81070DD5400704D5A068072186
:100A900009030843A060A0680F2109028843B168D8
:100AA0000843A0603078C00732D0706801280AD0AF
:100AB00002280BD000280FD03449403103280ED033
:100AC000C969890704E02168890301E02168890177
:100AD000002906DB0120F8BD21684905F8E7096A0D
:100AE000EFE7A168C908C9000143A160FFF764FEF0
:100AF000009006E0FFF760FE0099411A224881420B
:100B00001BD8A068382108407168C9008842F1D11B
:100B100028684007400FB84217D91A480168C90829
:100B2000C90039430160FFF747FE054607E0FFF7BC
:100B300043FE411B1448814201D90320F8BD1148EE
:100B400000684007400FB842F1D13078400706D521
:100B5000A068072109038843F1680843A06000F0FA
:100B600031F8A1683C2289091140094A515CC90643
:100B7000C90EC8400749086007480068FFF73EFEF5
:100B8000F8BD000000200240881300000010024061
:100B9000B827000814000020080000200648074974
:100BA00000688968064A4904490F8900515CC906F2
:100BB000C90EC84070470000140000200010024019
:100BC000F827000810B5204CA068204A8006400F86
:100BD00016D0A0688006410F501001290FD0A168DF
:100BE0008906490F022912D0A0688006400F042808
:100BF00023D0A0688006400F032821D0002010BD1C
:100C0000206801218004400F8140104612E0E16815
:100C10008B07E1689B0F4906490F491C032B00D045
:100C20001046FFF765FAE1684904490E4843E16858
:100C3000490F491CFFF75CFA10BD0120C00310BD2D
:100C40007D20000210BD0000001002400024F400CE
:100C5000F8B504007ED020783827C007EB4D002877
:100C600046D0A868E96838408907890F102802D063
:100C700008280BD001E0032908D001206268000495
:100C800082420AD129680143296015E0286880035F
:100C90002ED560680028DDD02AE0052301211B0441
:100CA00089049A422A6802D10A432A60EAE7824309
:100CB0002A60286888432860606800280CD0FFF705
:100CC0007BFD064604E0FFF777FD801B642873D8A0
:100CD00028688003F7D50BE0FFF76EFD064604E0B9
:100CE000FFF76AFD801B6428F1D828688003F7D4D9
:100CF0002078800769D5A868E96838408A07072105
:100D0000920FC902102802D0002813D001E0022A55
:100D100010D0E068002846D028688843216908433D
:100D200028602868FF21013108432860FFF744FD4F
:100D300006462CE02A68520502D5E268002A89D0CE
:100D40006A687F231B029A4363691B021A436A6025
:100D5000002800E08DE00ED128688843216908430F
:100D60002860286801218004400F8140A848FFF7CF
:100D7000BFF9A8490860A8480068FFF73FFD0028B0
:100D800077D122E0FFF718FD801B02289FD8286842
:100D90004005F7D568687F21090288436169090227
:100DA0000843686011E02968FF2001308143296011
:100DB000FFF702FD064605E098E0FFF7FDFC801B0B
:100DC000022884D828684005F7D42078934E00077D
:100DD0002ED5A8688006400F03280AD0A0690028F5
:100DE000306A16D0012108433062FFF7E5FC074660
:100DF0000BE0306A80071BD5A06900289FD017E060
:100E0000FFF7DAFCC01B022870D8306A8007F7D5DC
:100E10000EE0400840003062FFF7CEFC074604E0D9
:100E2000FFF7CAFCC01B022860D8306A8007F7D4DD
:100E3000207840076CD5A86800278006400F04285A
:100E400018D0E86BC00008D4E96B0120000701430B
:100E5000E963E96B01400127009171480168C90508
:100E600019D40168821511430160FFF7A5FC0090B9
:100E70000DE083E0F06980074AD5A06800287DD0A6
:100E800046E0FFF799FC0099401A02282ED86448E2
:100E90000068C005F5D5A168012910D004200529F6
:100EA000F16911D049084900F161F1698143F161AB
:100EB000A068002816D0FFF77FFC00900EE0F069D4
:100EC00001210843F061F3E70143F161F7E7FFF720
:100ED00073FC0099411A534881426DD8F06980072C
:100EE000F5D50EE0FFF768FC009007E064E0FFF73F
:100EF00063FC0099411A4B4881425DD8F069800734
:100F0000F5D4002F04D0E96B012000078143E96389
:100F1000E069002877D0A9688906490F022951D0D5
:100F200001263606022828680DD0B0432860E868FC
:100F300080088000E860E8683B490840E860FFF707
:100F40003BFC04463AE0B0432860FFF735FC074617
:100F500004E0FFF731FCC01B02282DD8286880016F
:100F6000F7D4616A206AA26A0843E16A1202114357
:100F70000843216B0843E9682C4A00E041E0114036
:100F80000843E860286830432860E86801210907C1
:100F90000843E860FFF710FC044604E0FFF70CFC90
:100FA000001B022808D828688001F7D52BE0FFF73E
:100FB00003FC001B022801D90320F8BD286880012A
:100FC000F5D420E00128F8D0E868226A8107890F6B
:100FD000914216D17021626A0140914211D17F2164
:100FE000A26A09020140120291420AD11F2149045A
:100FF000E26A0140914204D1400F216B40078842D0
:1010000001D00120F8BD0020F8BD00000010024012
:101010000024F400140000200800002040100240CA
:101020000070004088130000FFFFFEEF8C80C11F9E
:10103000094910B5401E884201D9012010BD074C56
:1010400060610321081F00F0B3FF0020A0610720AA
:101050002061002010BD0000FFFFFF0000E000E065
:1010600030B5014660310A7F012A18D001220A7783
:101070002423024680321446136003681A681D68F0
:101080006D086D001D6001235B079A4300234366D2
:1010900000680260202020600B77184630BD0220D7
:1010A00030BD7047F8B5054604466035287F0128F5
:1010B0001DD0012028772422204680300746026078
:1010C0002068066802685208520002602068826840
:1010D00007235B069A430A438260204600F034FCF3
:1010E000206806602020386000202877F8BD0220A4
:1010F000F8BDF8B5054604466035287F01281CD0A8
:10110000012028772422204680300746026020688C
:101110000668026852085200026020688268D200A5
:10112000D2080A438260204600F00EFC2068066068
:101130002020386000202877F8BD0220F8BD7047D5
:101140007047F8B505468035296804466E68006822
:10115000826810271206002A14DA212912D1816828
:10116000802291438160606F002808D0FFF7FAF871
:10117000002804D0606FFFF76FF920281DD02046AB
:1011800000F032FD20688168490614D5222E12D164
:101190008168402291438160A06F002808D0FFF74A
:1011A000E1F8002804D0A06FFFF756F9202804D0FA
:1011B000204600F005FD0020F8BDAF600320F8BD1B
:1011C00070470000F8B503680446DA691868996842
:1011D00016072546360F8035002E60D0584EFF2763
:1011E00021370E400740374372D0D70706D0C705D6
:1011F00004D501271F62AB683B43AB60930708D55A
:10120000CB0706D0276802233B62AB6804273B4329
:10121000AB60530708D5CB0706D0276804233B6291
:10122000AB6802273B43AB60130709D5202303407B
:10123000334305D0266808233362AE681E43AE6090
:10124000AB68002B38D092060AD520221040D20578
:101250001140084304D0E16E002901D020468847A0
:10126000A86821688968490601D4000729D5204665
:1012700000F0A6FC2068816849061ED582684021DE
:101280008A438260A06F002817D02E498163A06F27
:10129000FFF7A2F800280FD0A06F816B0BE0960635
:1012A00016D5012720263F0706400F403E430FD0AA
:1012B000E16E22E020468847F8BD2046FFF780FF18
:1012C000F8BD2046FFF77CFF0020A860F8BDFFE7CF
:1012D000D60208D54E0206D5012000051862204628
:1012E000FFF72EFFF2E716060AD501278026FF0535
:1012F000064039400E4303D0216F0029DAD1E5E7DB
:1013000051060DD541060BD51A68204640218A4367
:101310001A60202129600021216700F013FAD5E727
:10132000110205D5410003D52046FFF708FFCDE7A0
:10133000D101CBD50028C9DA2046FFF7B2FEC5E7B8
:1013400001000010D91A000870B5040006D020462C
:10135000803005460068002802D007E0012070BDFB
:1013600000217C200155204600F026F8242028602A
:1013700020680168490849000160204600F044FCEB
:101380000128ECD0A06A002802D0204600F00CFB17
:10139000206841680922D202914341602068816837
:1013A0002A22914381602068016801221143016073
:1013B000204600F05FFB70BDF0B587B006461421F3
:1013C0006846FEF7B2FE3E4B32683E4802210024DA
:1013D00080279A422AD13B4A403215684B031D436D
:1013E000156012681A400592426B0A434263406BD3
:1013F0006A4608400590C02013C2039469463248EB
:101400000494FFF731F9324D30482860AC60EC604D
:101410006C612F613220AC61686020202C62E86131
:10142000284646E0B567AE6207B0F0BD294B9A4248
:10143000FAD1C36B012252041343C363C36B13403D
:101440000593436B012213434363406B6B4610408B
:1014500005900C2013C305206946000703940492ED
:10146000FFF702F91A4D19485C3514302860352011
:1014700068602A461020083291C26C61AC61EC6150
:1014800028462C62FFF746F8002801D0FEF768FFD7
:101490007567AE620D480E4D2830B8352860AC60D7
:1014A000EC606C61AC61EC612F6134202C6268608F
:1014B0002846FFF72FF80028B4D0FEF751FFB1E718
:1014C00000380140001002400004005008000240B3
:1014D0009805002000440040F8B5054604468035D4
:1014E000686820284ED100290BD0002A09D001239A
:1014F000A0681B03984206D12069002803D1C807C1
:1015000001D00120F8BD26466036307F012839D051
:10151000012030775C20A16502530027AF602220B4
:101520006860A06F00281AD01749C162A16F1748E0
:101530000863A16F16484863A06F13468763A06DC8
:101540002168844662462431A06FFFF733F80028F3
:1015500005D01020A860377720202860D1E73777A2
:1015600020680168FF220132114301602068816810
:10157000012211438160206881684022114381600B
:101580000020F8BD0220F8BD3B1B00087B1B0008B3
:10159000ED1A00080349814202D103490120087075
:1015A0007047000080040020920000207047FFB5C3
:1015B000074604468037386885B00D46202864D138
:1015C000002D0CD00798002809D00120A168000345
:1015D000814207D12069002804D1E80702D0012008
:1015E00009B0F0BD204660300290007F01284CD049
:1015F0000298012101770020B86021203860FFF7B0
:10160000DBF80190264640360798B0820798F082B2
:101610000120A1680003814202D12069002802D084
:101620000395002515E00020039012E000228021A0
:10163000204600F059FC002818D10398002817D044
:101640002168007888620398401C0390F08A401E4D
:10165000F082F08A019B002808980090E6D10022D1
:101660004021204600F040FC002808D00320B7E7C6
:1016700028882168C005C00D8862AD1CE6E72020DF
:101680003860029900200877AAE70220A8E7000046
:10169000F8B50546044680352868202849D1002938
:1016A0000BD0002A09D00123A0681B03984206D161
:1016B0002069002803D1C80701D00120F8BD2646C3
:1016C0006036307F012834D001203077204640300A
:1016D00021658282C2820027AF6021202860606F6E
:1016E00000281BD01449C162616F14480863616F00
:1016F00013484863606F8763636F20689C46134696
:10170000024628326046216DFEF754FF002805D0BE
:101710001020A860377720202860CEE7216840207D
:101720000862377720688168802211438160002039
:10173000F8BD0220F8BD0000851B0008B51B00089D
:10174000ED1A000870477047FEE7000008B504482E
:10175000816B012211438163806B1040009008BDB2
:1017600000100240F0B587B014216846FEF7DDFC9A
:101770001848426B02210A434263426B0A400592B9
:10178000416B012529434163406B134E28406C0295
:1017900005902A4621463046FFF707F805273F0700
:1017A000012292213846FFF700F8009400240195A9
:1017B0000294694630460394FEF756FF922000904B
:1017C00002946946019503943846FEF74DFF07B031
:1017D000F0BD0000001002400004005010B5184891
:1017E00016490160E1210903416000218160C16067
:1017F00001618161C16101620C22416242618162C9
:10180000FFF7A2FD002801D0FEF7AAFD00210C4839
:10181000FFF76FFC002801D0FEF7A2FD0021084869
:10182000FFF740FC002801D0FEF79AFD0448FFF7BF
:1018300017FC002801D0FEF793FD10BD00380140D1
:101840008004002010B50C480A4901600B49416032
:1018500000218160C16001618161C16101620C226E
:10186000416242618162FFF76FFD002801D0FEF7FF
:1018700077FD10BD004400400C050020D01213007D
:10188000704770477047000010B5FEF79BFF0C488B
:101890000178012912D141687D22491CD2004160A2
:1018A00091420BD900214160012149020548FEF710
:1018B00075FF052080210007FEF770FF10BD0000B6
:1018C000000000200004005030B597B03421684675
:1018D000FEF72BFC00240D940E940F94182111A8F0
:1018E0001094FEF722FC01204002FEF7DFFF0225E4
:1018F000E801039000954020059008200A9080039D
:101900000B900795000304940C9008950994684681
:10191000FFF79EF907200D900F9402210E95109469
:101920000DA8FFF78FF801201190129411A8FEF76F
:10193000E3FF17B030BD000001200249C0068860F7
:101940007047000000ED00E0F0B513A106C985B0B6
:101950000192009112A206CA039202910446416EBE
:101960004034002915D000688168806809014D0F56
:10197000400F02AE315C6F46385CC000FEF7B8FB2A
:101980006085785D715DC000FEF7B2FB208505B013
:10199000F0BD01206085F9E70101010307010000A6
:1019A000080402040801010110B5018DC90707D020
:1019B00001684A6801235B049A43C36A1A434A6078
:1019C000018D890707D501684A6801231B049A43E2
:1019D000036B1A434A60018D490707D501684A68BD
:1019E00001239B049A43436B1A434A60018D090704
:1019F00007D501684A680123DB039A43836B1A43C6
:101A00004A60018DC90607D50268916801231B034E
:101A10009943C36B19439160018D890607D501680D
:101A20008A6801235B039A43036C1A438A60018D21
:101A3000490612D503685A6801210905446C8A4396
:101A400022435A60426C8A4207D1026851680323DC
:101A50005B059943836C19435160018D090607D5D5
:101A600001684A680123DB04C06C9A4302434A6060
:101A700010BD0000FEB50546002680350446AE6068
:101A8000FEF79AFE019020680068124F000709D502
:101A900001210097002249052046019B00F024FA0D
:101AA00000280DD12068006840070BD50121009760
:101AB000002289052046019B00F016FA002801D07B
:101AC0000320FEBD20202860686060342677002057
:101AD000FEBD0000FFFFFF0110B5806A0022014635
:101AE0004031CA83CA82FFF76BFB10BDF8B5846A28
:101AF00020468030016805464668206880680027D7
:101B00000006002806DA212904D156200753204672
:101B100000F06AF820688068400606D5222E04D1BD
:101B20005E200753204600F04BF8A86810210843B8
:101B3000A8602046FFF744FBF8BD10B501460968D0
:101B4000806A0968890615D400225E210A5201685C
:101B50000A68FF2301339A430A6001688A685208C1
:101B600052008A6001688A6840239A438A60202272
:101B700084210A50FFF70EFD10BD10B5806AFFF7F3
:101B800015FD10BD10B501460968806A096889060F
:101B90000DD4002256210A5201688A6880239A4394
:101BA0008A600068016840221143016010BDFFF7A0
:101BB000C9FD10BD10B5806AFFF7C5FD10BD00005E
:101BC00001680A68FF2321339A430A6001688A6822
:101BD000044B1A408A60202284210A500021C166E9
:101BE00070470000FEFFFFEF01680A68C0239A43B8
:101BF0000A6001688A680123DB059A438A60202114
:101C00008030016070470000F8B5044680682169A3
:101C1000E26908436169002611430843616E226846
:101C200001431068A94B18400843106021684868B8
:101C3000032212039043E26810434860A169206ABE
:101C4000226808439168A24B1940014391602068C3
:101C5000C16A626A090909011143C1629D4920688C
:101C600088420FD19C4840698007800F10D001281E
:101C700004D002280CD0032809D101E0042007E099
:101C8000082005E09549884201D1002000E010209D
:101C90000122D203E169D511914B924F91426FD14C
:101CA000002806D0022835D004287AD0082869D127
:101CB0007AE0FEF773FF76E0012815D0022815D0F0
:101CC000032815D0042815D0052815D0062815D0CE
:101CD000072815D0082815D0092815D00A2815D0AE
:101CE0000B2814D0012512E0022510E004250EE097
:101CF00006250CE008250AE00A2508E00C2506E088
:101D0000102504E0202502E0402500E0802529463A
:101D100010461BE0606A002815D001282AD002284E
:101D20002AD003282AD004282DD005282DD0062813
:101D30002DD007282DD008282DD009282DD00A28ED
:101D40002DD00B2800D0012529461846FEF7D0F9E2
:101D5000616840004A088018FEF7CAF980B201465F
:101D60001039B9420ED85F49491C01400007400FA5
:101D700008437FE00225E7E70425E5E70625E3E7DA
:101D800016E00EE08AE00825DEE70A25DCE70C25F0
:101D9000DAE71025D8E72025D6E74025D4E78025C7
:101DA000D2E7FEF70FFF0246606A00289AD083E769
:101DB000002806D0022835D0042874D0082879D10C
:101DC00074E0FEF7EBFE70E0012815D0022815D074
:101DD000032815D0042815D0052815D0062815D0BD
:101DE000072815D0082815D0092815D00A2815D09D
:101DF0000B2814D0012512E0022510E004250EE086
:101E000006250CE008250AE00A2508E00C2506E076
:101E1000102504E0202502E0402500E08025294629
:101E200010461BE0606A002815D0012825D0022842
:101E300025D0032825D0042825D0052825D006281C
:101E400025D0072825D0082825D0092827D00A28FA
:101E500027D00B2800D0012529461846FEF748F95F
:101E600061684A088018FEF743F980B201461039CC
:101E7000B9421FD82168C8601DE00225ECE704259F
:101E8000EAE70625E8E70825E6E70A25E4E70C2562
:101E9000E2E71025E0E72025DEE704E00AE0402540
:101EA000DAE78025D8E7FEF78DFE0246606A002853
:101EB000A0D089E7012620460121403041850185D7
:101EC0000020E06620673046F8BD0000F369FFCFD0
:101ED000FFF4FF1100380140401002400044004070
:101EE0000024F400EFFF0000FFB581B017460E4656
:101EF00004460A9D09E0681C07D0FEF75DFC0499C2
:101F0000401AA8420CD8002D0AD02068C16930467A
:101F100088431AD00020B842EDD0002005B0F0BDB3
:101F200020680168FF22A132914301602068816826
:101F300049084900816020212046803001604160CD
:101F40000020603420770320E8E70120E3E7000069
:101F500010B50248FFF736F910BD000080040020DC
:101F600010B5FEF7DDF90248FFF72CF910BD0000AF
:101F70000C0500200FB410B503A9044B044A0298C5
:101F800000F048F810BC08BC04B01847ED26000863
:101F90007C04002030B47446641E2578641CAB4277
:101FA00000D21D46635D5B00E31830BC184700009B
:101FB0008307FF22DB0E9A408907090E994000280B
:101FC00008DB830809489B001B18186890430843E6
:101FD000186070470007000F0838830804489B000A
:101FE0001B18D86990430843D861704700E400E0AB
:101FF00000ED00E002E008C8121F08C1002AFAD173
:1020000070477047002001E001C1121F002AFBD178
:1020100070470000FFB58DB00F460546002606E06C
:1020200025280AD0109A0F9990476D1C761C2878A5
:102030000028F5D1304611B0F0BD00240121674AD7
:10204000009400E004436D1C2B780846203B984028
:102050001042F7D128782E2815D10420044368783F
:102060006D1C2A280AD101CF6D1C00900BE000994D
:102070000A225143303940186D1C009028780146DF
:1020800030390929F3D92878692843D006DC00289B
:10209000D0D063280BD0642804D13BE073280FD044
:1020A00075284CD0109A0F999047761C94E0387898
:1020B000694608720020487202A80190012003E0DE
:1020C000386801900020C0433F1D61070CD50024F3
:1020D00000E0641C00998C420FDA8442F9DB01991C
:1020E000095D0029F5D108E0002400E0641C844269
:1020F000FCDB0199095D0029F8D1361907E0019848
:1021000001990078491C0191109A0F999047641E1B
:10211000F5D261E00A20019001CF002802DA4042A6
:102120002D2102E0210504D52B216A4611720121DF
:1021300003E0E10701D02021F7E70C9104E00A2039
:10214000019001CF00210C910BA90B9108E001999E
:10215000FDF7CEFF0A460B993032491E0B910A70EB
:102160000028F4D10B9803A9081A203001906007C9
:1021700001D5009801E0012000900199884203DD1B
:1021800001460198081A00E000200024009006E0B3
:1021900002A8109A005D0F999047641C761C0C9859
:1021A0008442F5DB04E0109A30200F999047761CAA
:1021B0000099481E00900029F5DC08E00B980B9967
:1021C0000078491C0B91109A0F999047761C019941
:1021D000481E01900029F1DC6D1C28E70928010048
:1021E000F7B582B000212A4C00916178294F00296F
:1021F00002D001292BD11BE000F06EFA32223946C1
:102200002548FFF769F901206070FEF7D5FA01460D
:10221000606022A0FFF7AEFE2078401CC0B22070A4
:102220000A2814D922A0FFF7A5FEFEF731FB0EE025
:10223000184E0025083E307801280BD0FEF7BCFA76
:10224000A0606168411A0498814200D965700098C5
:1022500005B0F0BD394618A0FFF78CFE384603994B
:10226000FDF76EFF00280AD02570357075800120BB
:1022700000901921657049013846FDF756FF357009
:102280001921758049013846FDF74FFFDFE700004F
:1022900018000020B40600200C0500207761697446
:1022A0005F74696D5F7374613D25640D0A00000001
:1022B000726573657400000061636B3A25730D0AE3
:1022C0000000000010B5064C2078012807D17D22BF
:1022D000D200A11C0348FFF7DBF90020207010BDDD
:1022E000920000200C05002070B51249FF264878A6
:1022F000114C401CC3B28A1CF5364B70012B07D120
:10230000002025182D7A1554401C80B2B042F8D315
:10231000022B0ED1002023181518FF33E133FF35AF
:10232000E135401C1B7F80B22B75B042F3D30020F7
:10233000487070BD920000201410002070B5052474
:102340002407012210212046FEF72FFA7D25ED00FB
:102350002846FEF777F9002210212046FEF725FADD
:102360002846FEF76FF92846FEF76CF90122102186
:102370002046FEF71AFA2846FEF764F92846FEF7CB
:1023800061F92846FEF75EF970BD0000F8B55F4CB4
:102390007D27A07800255E4EFF000300FFF7FAFDC1
:1023A0000E08101C4D5A677079838EB3283441B3E0
:1023B000324658A15BA0FFF713FF012871D0A2E0BD
:1023C0005CA0FFF7D7FD32465DA161A0FFF708FFD3
:1023D0000128F4D1022064E062A0FFF7CBFD324671
:1023E00065A168A0FFF7FCFE0128E8D10B2058E0AA
:1023F00068A0FFF7BFFD32466DA170A0FFF7F0FEA9
:102400000128DCD10C204CE070A0FFF7B3FD3F4861
:10241000324673A10C30FFF7E3FE012873D10D2083
:102420003FE072A0FFF7A6FD324676A179A0FFF744
:10243000D7FE012867D1032033E07EA0FFF79AFD85
:10244000324832467DA13430FFF7CAFE01285AD106
:10245000042026E07DA0FFF78DFD2C4832467FA1A9
:102460005C30FFF7BDFE01284DD1052019E0324652
:102470007DA180A0FFF7B4FE012844D1062010E022
:10248000324681A183A0FFF7ABFE01283BD1072094
:1024900007E0324682A185A0FFF7A2FE012832D1D3
:1024A0000820A0702FE03A4684A187A0FFF798FE8D
:1024B0000920A0703846FEF7C5F824E03846FEF73C
:1024C000C1F83846FEF7BEF83846FEF7BBF8384686
:1024D000FEF7B8F83846FEF7B5F83846FEF7B2F81A
:1024E0003846FEF7AFF83846FEF7ACF83846FEF748
:1024F000A9F83846FEF7A6F83846FEF7A3F838469E
:10250000FEF7A0F801252846F8BD000018000020BD
:102510008813000061742B524E65746D6F64653DC5
:102520003000000061742B4E65746D6F64653D3042
:102530000D0A0000C9E8D6C3C4A3CABD0D0A000035
:1025400061742B524E50726F5479706530000000E8
:1025500061742B4E50726F54797065303D320D0AA4
:102560000000000044484350B7FECEF1C6F7B9D88A
:10257000B1D50D0A0000000061742B5244686370ED
:102580006400000061742B44686370643D300D0A80
:1025900000000000C9E8D6C357414EB5C44950B544
:1025A000D8D6B7BBF1C8A1B7BDCABD0D0A0000009F
:1025B00061742B52446863706300000061742B44A3
:1025C000686370633D310D0A00000000C9E8D6C39E
:1025D000B1BEBBFA4950B5D8D6B70D0A000000000D
:1025E00061742B524C414E4970000000C9E8D6C3BB
:1025F000B1BEBBFACDF8B9D8B5D8D6B7B5D8D6B72D
:102600000D0A000061742B524C414E49704D6173AC
:102610006B00000061742B4C414E49704D61736B2F
:102620003D3235352E3235352E3235352E300D0AC8
:10263000000000003132330D0A00000061742B529B
:102640004E446F6D61696E3000000000C1B4BDD3AF
:102650004950B5D8D6B70D0A0000000061742B525E
:102660004E52506F7274300061742B524E4C506F4A
:102670007274300061742B4E4C506F7274303D3860
:102680003838380D0A00000061742B5253617665AA
:102690003D31000061742B536176653D310D0A00B8
:1026A00061742B524170706C793D310061742B4123
:1026B00070706C793D310D0A0000000061742B527E
:1026C00065626F6F7400000061742B5265626F6FFA
:1026D000743D310D0A00000010B5044602E000F020
:1026E00053F8641C20780028F9D110BD13B5044BB1
:1026F000012269460348FEF75AFF00981CBD0000FE
:10270000FFFF000080040020FEF764F8FFF7DCF80C
:10271000FFF728F8FFF71AF8FFF760F8FFF792F8CD
:10272000002201211B20FEF7AFF81B20FEF7A0F8C6
:10273000002211461C20FEF7A7F81C20FEF798F88F
:10274000002211460A20FEF79FF80A20FEF790F8B3
:10275000002211460920FEF797F80920FEF788F8B5
:10276000FDF7B6FDFDF7A2FDFFF7E8FDFFF70EFE52
:102770000128FBD10349087000F012F8FFF7A2FD11
:10278000FCE700000000002001B5034B0122694670
:102790000248FEF70CFF08BDFFFF00000C050020FB
:1027A00010B57D22D20002490248FEF795FE10BD09
:1027B0001C10002080040020000000000000000029
:1027C0000000000000000000000000000000000009
:1027D00000000000000000000100000002000000F6
:1027E00003000000040000000600000007000000D5
:1027F00008000000090000000000000000000000C8
:1028000000000000000000000100000002000000C5
:102810000300000004000000382800080000002029
:10282000800400008C010008882800088004002033
:10283000581B0000042000088132048201D324F4D4
:10284000181361742B4C414E49703D3139322E3191
:1028500036382E31060410300D0A192898094E44D6
:102860006F6D61696E302BDC3230332B2928F80C08
:1028700052506F7274303D363936324903FF61620F
:0828800001FF01FF01ED000062
:04000005080000C12E
:00000001FF
